:020000040101F8
:106000001816002061780101DD780101875A02012C
:10601000E1780101E3780101E57801010000000069
:10602000000000000000000000000000E77801010F
:10603000E978010100000000EB780101ED78010131
:1060400000000000EF780101F9700101EF78010113
:10605000EF780101EF780101EF780101EF7801019C
:10606000EF780101EF780101EF780101EF7801018C
:10607000EF780101EF78010100000000EF780101E5
:10608000EF780101EF7801015D630101EF78010113
:10609000FF6C0101496D01015F6D0101696D010135
:1060A000854C0201B74C0201094C0201134C02015C
:1060B000754C02016B4C0201614C0201FF4B020165
:1060C000F16C0101554C0201DFF80CD010F09AF987
:1060D00000480047D9630101181600202DE9FF5F31
:1060E000EFF303801B4908601B481C491C4A1D4BE9
:1060F0001360C1F800D0DFF87080DFF87090D9F835
:106100000090C8F80090DFF86880DFF86890D9F850
:106110000090C8F80090DFF86080DFF86090D9F850
:106120000090C8F80090DFF85880DFF85890D9F850
:106130000090C8F800904FF40D74046030BF06481A
:106140004FF0000101600348016881F30388BDE856
:10615000FF5F70470C0000200800002010000020A6
:10616000040000203F610101140000204050004065
:1061700018000020149000401C00002038900040BF
:1061800020000020449000400446012080F3138842
:10619000B3490A68521C0A6000F09CFEB148B2493B
:1061A00004604FF080704860FEE710B5EFF308829E
:1061B000AE4B1A60AE4A5368012B0CD05268022ACB
:1061C00011D10B460246002108460FF010FC4FF09B
:1061D000D330FFF7D9FF0B4602460021BDE810403F
:1061E00008460FF060BB10BD10B5002438B102287E
:1061F00005D049219FA0FFF7D8FF204610BDA04C35
:10620000FBE770B5EFF30884984D2C60984C6568F7
:10621000012D08D06468022C09D10FF0E8FB4FF083
:10622000D330FFF7B1FFBDE870400FF03CBB70BD4D
:106230007047944E8A4C0025D6F8AC0038B12068DF
:1062400028B99148006810B990497620C86003F0D9
:10625000C4FD706820B3012080F313882068401CBF
:10626000206003F0EEFDB8B17068012809D0022863
:1062700017D0874805602068401E206015D030BFC9
:1062800018E0012000F0CBFF01F050FB10F0FAF80D
:10629000FFF724FF01F039FC2068401E206007D082
:1062A00008E0002000F0BBFFE5E785F31388E6E790
:1062B00085F3138803F0B9FDBEE7764900200A1F75
:1062C0001368754A934202D10B68934206D0704717
:1062D00001EBC00208320CCA1360401C4A688242BB
:1062E000F6D8704770B5674D0024686A01F02FFA40
:1062F000641C642CFCD3686A01F033FA00204FF46C
:10630000C871401C8842FCD3644C634920688842B1
:1063100017D1616800200D4606E004EBC002401C66
:1063200093680B44D16819448542F6D85B48D0F88D
:106330005804884206D04E494FF08630086000204D
:10634000206070BD002005E004EBC001083106C9E3
:106350000A60401C61688142F6D870BD504951F80E
:106360000C0CC0F306224F48036943F480730361A9
:10637000036823F07F4343EA02620260A0F50870DD
:1063800002158261C86F40F48030C8674648110228
:106390000160704742480021001F8163C1634AF6D3
:1063A000AA210160816F21F440318167816F41F43E
:1063B00080318167C16F21F4E021C167C16F41F471
:1063C000E021C1673949E02008704FF0E0204FF428
:1063D0008021C0F80011704735490020401C8842D8
:1063E000FCD3204A0021224C1068B0F1C33F35D0C5
:1063F0000CDCB0F1973F31D0B0F1A53F2ED0B0F119
:10640000A63F2BD0B0F1B43F09D127E0B0F1D33F84
:1064100024D0B0F1E23F21D0B0F1F23F1ED0216094
:10642000116000F0BEFB03F07CFC224801686FF3B2
:106430000B010160016841F06001016000F03EF86D
:106440001D4810490068C1F8AC00FFF74BFFFFF78B
:1064500034FF206803F0A6FCFFF7EBFE2060DFE7C7
:10646000BC0000200000002000600040A4000020CC
:1064700034000020617263685F6D61696E2E630095
:1064800038690201D4000020B000002000C0005094
:1064900010ED00E004600020F066A55A7839002075
:1064A0000CE000502002004080E200E012E400E036
:1064B000801A060080000040743900207FB5FF4933
:1064C000FD480860091D08684FF6FF021040FC4AAD
:1064D00040F4A0601043086000240125F948192108
:1064E000019402948DF80C506A060260684600918F
:1064F00001F063F91A200090684601F05EF91B2054
:106500000090684601F059F91C200090684601F09F
:1065100054F91D200090684601F04FF91E200090AC
:10652000684601F04AF91F200090684601F045F9DD
:1065300021200090684601F040F914200090019558
:106540000295684601F039F91520CDE9000502945D
:10655000684601F032F902200090CDE90104684656
:1065600001F02BF97FBDD84A4FF480415163D749E0
:1065700000238B6001238B6040F080000866FF20C1
:1065800008660866486A0328FCD140205063086EFC
:10659000086E4FF6FF72096E02EA0020084480B2CE
:1065A000704730B5C84C0A0ACBB24FF480416163E2
:1065B000C64900258D6001258D6000F07F000866CA
:1065C0000A660B66486A0328FCD14020606330BD30
:1065D0004FF0FF3202EB5000C3084007C00E0F22FD
:1065E00082408140BA48114000EB830050F8803F60
:1065F0009343036002680A430260704770B5B54E6A
:10660000B5683468B449B160B4493160B04BA6F59F
:106610000A76D96841F00801D96000220021491C9E
:106620006429FCD3D968090702D5521C642AF5D322
:10663000C6F83052C6F82842002803D01969C1F3C1
:106640008B41018070BD70B5A24B9D681C68A44948
:106650009960A24919609E4EA3F50A73C836316845
:1066600041F4800146F8C81900220021491C642920
:10667000FCD3D3F8401211F01F0101D00F2902D131
:10668000521C642AF1D356F8C82F22F480023260DB
:10669000D3F8202222F03E02C3F82022D3F8202291
:1066A00042EA4102C3F8202200B101708D48C0F8CF
:1066B0008010C3F83052C3F8284270BD2DE9F04F66
:1066C000844E0546083ED6F800A0D6F80890D6F8C5
:1066D0001080F769844830608448B0608448306135
:1066E00041F66C70F061A6F5087600204FF47A61EF
:1066F000401C8842FCD302248B46D6F8200220F0AE
:106700007F4040EA0460C6F8200200205946401C41
:106710008842FCD3D6F84402C0F3430C61462046BD
:10672000FFF756FF042C03D161460220FFF750FF0C
:106730001DB105EB540000F801CCA41C502CDCD991
:1067400006F50876C6F800A0C6F80890C6F81080CE
:10675000F761BDE8F08F6748016841F4804101604E
:10676000654A4CF252001060012050600021002068
:10677000401C0A28FCD35068C00702D0491C642979
:10678000F5D3106A70472DE9F74F9CB004460025F9
:10679000642168460FF081FB4E4800210838894685
:1067A00002681B9282681A9202691992D0F81CE062
:1067B000524A0260524A826041F27872026140F6A7
:1067C000AC72C2616F46DFF808B141F270734FF4EA
:1067D000167C16E0DBF80C005E4640F00400CBF8B7
:1067E0000C0000220020401C9842FCD3F0684007B7
:1067F00002D5521C6245F5D33069C0F30530785597
:106800006D1CA542E6D3012C03D0052C0ED200202E
:1068100007E09DF8001001EB09002CE03A5C401CF9
:106820001144A042FAD3B1FBF4F023E00520B4FBFD
:10683000F0F8A4EB080AAAEB080500220EE00020FD
:10684000A5EB020C07E03E183B5C7478A34201D92B
:1068500073703C54401C8445F5D2521CAA42EED9B8
:1068600004E017F8080008F101080144C245F8D80F
:10687000B1FBF5F048441D9901B10870DBF8101028
:106880005B4621F47C31CBF81010DBF8101041EAA4
:106890000030CBF810000F481B99083801601A9996
:1068A000816019990161C0F81CE0FFF754FFC3F83B
:1068B000A400D3F8A40025E00060010108ED00E089
:1068C0000000FA0580E200E000E0005000300050D7
:1068D000008000502802004038A2AA010A000004EB
:1068E00038027701D40000201E464D020A00F00253
:1068F000386377010060004000F000505E414D02B7
:106900000A00F90BC3F8A8001E98002803D0D3F89A
:10691000A4001E9908801FB01BE74FF4803000F0E0
:10692000D5BCD848D64901654FF016414165D649D6
:106930008165D649C165D6490166D649C166D64941
:106940000163D6494163D6498163D649C163D649BB
:10695000C0F8D010016841F0080101607047D448C8
:10696000D2490166D3494166D349816641F2571144
:10697000C167D2498167D2490165D24940F8401CBC
:10698000416F21F4E0214167416F21F460014167CB
:10699000416F41F4C0014167704710B50020FFF717
:1069A0008DFE002211460A20FFF7EDFE0020FFF7C2
:1069B0004AFEBF4850380169C34A1143016110BD06
:1069C00070B500221146C14800F0A0FD002201214F
:1069D000BE4800F09BFD00220221BC4800F096FD5D
:1069E00000220321B94800F091FD00220421B7489C
:1069F00000F08CFD00220521B44800F087FD002244
:106A00000621B24800F082FD00220721AF4800F0C5
:106A10007DFD0222FF21AD4800F08CFDAB48002235
:106A200008301146044600F071FD00220121204685
:106A300000F06CFD00220221204600F067FD0022DC
:106A40000321204600F062FD00220421204600F0D0
:106A50005DFD00220521204600F058FD00220621A0
:106A6000204600F053FD00220721204600F04EFD95
:106A70000222FF21204600F05DFD944800221030E4
:106A80001146044600F042FD00220121204600F09C
:106A90003DFD00220221204600F038FD00220321A6
:106AA000204600F033FD00220421204600F02EFD98
:106AB00000220521204600F029FD00220621204663
:106AC00000F024FD00220721204600F01FFD0222D5
:106AD000FF21204600F02EFD7C48012218300221C3
:106AE000054600F013FD02220321284600F00EFDAA
:106AF000774C1B221A2118202260C4E901101920AA
:106B0000E060C4E90E2100220421284600F0FEFCCA
:106B100000220521284600F0F9FC022230212846F7
:106B200000F008FD00221146284600F0EFFC00228C
:106B30000121284600F0EAFC00220721284600F047
:106B4000E5FC02228321284600F0F4FC33220621D2
:106B5000284600F0DBFC1E20206155487430016897
:106B600041F080710160BDE8704003221146574832
:106B700000F0E0BC7FB5012501980199000DA0F25D
:106B8000FF30C1F31304C0F11401CC4085402C4404
:106B90001460019A0C3082400098C84002431A6089
:106BA0007FBDF8B501214B4800F020FB4A4800F0BA
:106BB00026FB00F05CFB00F07EFB3D4C503C206867
:106BC00040F0020020601420A060FFF7F9FE00F002
:106BD0003AF9FFF7A6FEFFF7C2FEFFF7DEFED4F894
:106BE000C40040F48070C4F8C4004FF4803000F05A
:106BF0006DFB002569460320009500F070FB344EC4
:106C00006C3E012811D135490098B1FBF0F0B0601D
:106C10000FF0FBFA02460B46002031490FF075FADF
:106C200006F110031A1FFFF7A5FF294824222D495A
:106C30002C380FF019F9092026F8640F0D20708008
:106C400040F2E240306540F2DC50F0640D485C30C8
:106C5000416841F480514160016821F07071016028
:106C6000016841F0E0710160C1F383501E49087072
:106C700054F8C40F20F0807020601C48C565F8BD32
:106C80005E414D02D00100400A0000040E7EFC0768
:106C9000386444012C0C4200144003087ADA40D8CE
:106CA000020060006B7F5191B98600500E202C00CD
:106CB000508000501D191D1E170601100000207C79
:106CC000014059002038FD3F0000FC3F44000020F7
:106CD000400100200210010002000100000024F425
:106CE00080842E41486902013C00002000E00050F1
:106CF0004FF08040D0F818120115816170474FF0B5
:106D00008042D2F83C0220F08000C2F83C02002011
:106D1000401C80B20A28FBD31648C2F82802002083
:106D2000401C80B20A28FBD30020134901E0401C1C
:106D3000C0B20B789842FAD94FF4006090610F48C6
:106D40000188491C018070474FF48051880481619B
:106D5000D0F83C1221F08001C0F83C1270474FF48B
:106D600000504104886170474FF4804001048861FD
:106D7000704700000A00F8033C0000203E0000209D
:106D8000FE48C069002802D0FD4800F05BBB704798
:106D90002DE9F047F94A0300FA49506FF84F00F027
:106DA00007054FEAD0004FF0010601EBC00418D0F0
:106DB0009046894604222946204600F0A7FB06FAA1
:106DC00005F10022204600F0B5FBD8F87800032238
:106DD00000F00701C00809EBC00000F097FB01219B
:106DE00029E091468A4600222946204600F08EFB83
:106DF000B046AE4002223146204600F09BFB3146B1
:106E0000204600F0B2FBD9F87800002200F0070518
:106E1000C0080AEBC0042946204600F077FB08FAB8
:106E200005F10D462046022200F084FB294620464B
:106E300000F09BFB0021384600F0D2FA3846BDE84E
:106E4000F04700F0FFBA70B5CF49D048CB4C0A6884
:106E5000824201D1486801E04FF00900A06101D1F0
:106E6000886801E04FF00000C54D4FF00003E0617D
:106E70001A464FF00301284600F0FEFA2846A169A1
:106E800000F0EEFA0121284600F0C9FA002211466E
:106E9000284600F0E1FAE06910B10120FFF778FF21
:106EA000284600F0CFFABA490020486108614860DE
:106EB00008608861C8618860C860BDE870405FE7AD
:106EC000AE4910B5C969012411B1AD4800F0BFFA4F
:106ED000204610BDAA4841694906FCD5704700B557
:106EE000AB4AA74B09E0FFF7F5FF506810F8011B0C
:106EF00019601168491EC2E9001010680028F2D11B
:106F00005DF804EBE6E730B50C46034600229C4DE5
:106F100004E0985C2860FFF7DDFF521CA242F8D322
:106F200030BD0146964800F09BBA2DE9F0470D466A
:106F3000DFF8509200F007011746C0081E46C84609
:106F400009EBC000012200F0E1FA05F00704E808AF
:106F500008EBC00521460222284600F0D7FA4FF080
:106F6000010808FA04F12846002200F0E3FA8348F9
:106F7000C06900281AD0F80807F0070409EBC00020
:106F800021464F460546042200F0C0FA08FA04F1F3
:106F90002846002200F0CEFAF00806F0070107EBC1
:106FA000C000BDE8F047032200F0B0BABDE8F087AA
:106FB0002DE9F05F00F00705DFF8C8B1C008914681
:106FC0000F460BEBC0041E4629460022204600F067
:106FD0009DFA4FF0010A0AFA05F8204602224146BE
:106FE00000F0A8FA4146204600F0BFFAF80807F082
:106FF00007050BEBC00400222946204600F086FA64
:107000000AFA05F10D462046022200F093FA2946BD
:10701000204600F0AAFA5948C06900282ED04FEA4D
:10702000D90009F007050BEBC0042946D946002218
:10703000204600F06BFA0AFA05F7D04620460222F5
:10704000394600F077FA3946204600F08EFAF0080B
:1070500006F0070509EBC00400222946204600F08F
:1070600055FA08FA05F10D462046022200F062FAB0
:1070700029462046BDE8F05F00F077BABDE8F09FF2
:1070800070B53F4D00231A460321284600F0F4F95D
:107090003A4C2846A16900F0E3F90121284600F0A6
:1070A000BEF900221146284600F0D6F9E06918B171
:1070B0000121284600F094F92846BDE870400122DD
:1070C000114600F097B930B4314C216114340DC42D
:1070D000012230BC11462A4800F08CB930B42C4C47
:1070E000002802C40DC405D0012230BC022124486E
:1070F00000F080B930BC7047214910B5886800F0B5
:107100000F00062813D005DC78B102280AD0042825
:1071100012D104E007280CD00C280DD10BE000F0B0
:107120000FF809E000F042F806E0886904E04869D9
:1071300002E0C86F00E0086816480421016010BD35
:1071400070B5134C0E482169B9B1016862691170BC
:107150002169491E2161626902F10102626124D143
:1071600000252A460121656100F044F9A269002A40
:107170001BD000210846A5610EE010E0D4000020DD
:107180000010005044000020D83D0020F066A55AB1
:10719000A801002080E200E0BDE870401047BDE893
:1071A00070400022012100F025B970BD70B50D4C72
:1071B0000D48616811F8012B02602268521EC4E973
:1071C00000210ED100252A460221656000F012F947
:1071D000A268002A05D0A560BDE8704000210846DD
:1071E000104770BDA801002000100050674A002918
:1071F000116801D0014300E081431160704700280D
:1072000001D062494860704761487047614A00296F
:10721000116C01D0014300E08143116470475D4966
:107220000A6A22F003020A620A6A02430A6270478B
:10723000584A0029116A01D0014300E081431162DC
:10724000704730B5C300534803249C40456AA543AA
:107250004562446A99400C4344621F21846A994004
:107260008C438462816A9A401143816230BD4948EF
:10727000016840F2012211430160016821F480712C
:10728000016070474348016841F480710160016802
:1072900021F001010160016821F400710160704773
:1072A0003C48416840F2012211434160416821F4A9
:1072B0008071416070473748416841F48071416096
:1072C000416840F2012291434160704731490A6AA6
:1072D00022F440320A620A6A02430A62704730B5F9
:1072E0000C460346FFF7E7FF2A49D1F8CC0040F4EB
:1072F0008050C1F8CC00002048614A694FF0E0603E
:1073000000EA036002434A61486940F00060486156
:107310000020401C6428FCD3002241F270735D10F1
:107320000020401C9842FCD34869000105D44869FC
:10733000C0F314002060012030BD521CAA42EFD3DC
:10734000002030BD00B50346FFF7B5FF1149D1F865
:10735000CC0040F48050C1F8CC00002048614A695C
:107360004FF0E06000EA036002434A61486940F080
:107370000060486100BD07484169090101D500204E
:1073800070474069C0F3140070470000006000407F
:107390000024F4000080005070B50446C0680D461B
:1073A00040F08000E06008680EF02FFF02460B46B8
:1073B000002037490EF0A9FE0022364B0EF08CFD5E
:1073C0000EF030FF2060000A6060E06820F080006E
:1073D000E060D5E901010843E9680843E06070BD59
:1073E0000029016902D041F0200101E021F02001D3
:1073F00001617047C36823F08003C360002A4268BC
:1074000001D00A4300E08A43426070470160704740
:107410004069400601D501207047002070470029CF
:1074200050F8981F02D041F0010101E021F0010164
:10743000016070474069C00700D0012070470068B4
:10744000C0B27047016941F00201016170470169F2
:1074500021F002010161704740F89C2F41607047A4
:10746000C26842F08002C260016000214160C168D0
:1074700021F08001C160704711431943C16070471A
:10748000C06F800701D500207047012070470000C1
:1074900080842E410000E03F134912480860704785
:1074A00012490868124A10600860124AC10705D0E4
:1074B000114B00211960114B19601160400703D571
:1074C0000F494FF0973008601068002808D00D4928
:1074D0000A6842F480620A600B49C86101200860B2
:1074E00070470000006CDC0240000020F480005077
:1074F000D43D002074390020D83D00207839002088
:10750000000000200060004000C0005030B58B0833
:107510008907C90E3F248C408A40416851F82350A6
:10752000A54341F82350406850F82310114340F818
:10753000231030BDF0B500230327CC070DD005681C
:10754000AE685C0007FA04FC26EA0C06AE6002FA9C
:1075500004F60468A5683543A56049085B1C072B41
:10756000EBD9F0BD006841607047006809024160D6
:107570007047006802680A4200D009024160704703
:1075800000680AB1416070470902FBE700680068C3
:10759000C0F30720704700B5FFF7F8FF084000D0A0
:1075A000012000BD30B5C3007D4803249C40056820
:1075B000A543056004689A40144304601F22446890
:1075C0009A4094434460426899400A43426030BD07
:1075D000C10001208840724908310860704770B5C9
:1075E000C300704803251F249D40466A9C40AE435B
:1075F0004662856AA5438562446A99400C434462A9
:10760000816A9A401143816270BD70B5C3006448BD
:1076100003251F249D4006689C40AE4306604568D4
:10762000A5434560046899400C43046041689A4052
:107630001143416070BD2DE9F04300F0070C054691
:10764000DFF86491C0080F4609EBC00461460022D0
:107650002046FFF75BFF4FF0010808FA0CF62046C2
:1076600002223146FFF766FF2168300248602A4651
:1076700002210020FFF7B3FF2A4603210020FFF775
:10768000C4FFF80807F0070509EBC00400222946EB
:107690002046FFF73BFF08FA05F10D46204603227E
:1076A000FFF748FF216828024860BDE8F0832DE914
:1076B000F04100F0070CDFF8F080C0080F4608EB3F
:1076C000C004614600222046FFF720FF012606FA8B
:1076D0000CF5204602222946FFF72CFF21682802DC
:1076E0004860002211461046FFF779FF002211463C
:1076F0001046FFF78AFF0020FFF76AFF2B4831048E
:107700000160F80807F0070508EBC00400222946CD
:107710002046FFF7FBFE06FA05F10D462046022241
:10772000FFF708FF216828024860BDE8F08100F0FB
:1077300007011D4AC00852F83000006808310122D4
:107740008A40024201D0012070470020704700F0BB
:107750000701C00801228A40134951F830004260F5
:10776000704700F00701C008083101228A400E4925
:1077700051F830004260704730B500F007010A4A06
:10778000C00852F83000036801F10805012404FA2A
:1077900005F21A4201D0426030BD8C40446030BDD9
:1077A00080E00050008000504400002080E200E0B3
:1077B00027490843274908607047F0B50178037BE3
:1077C0004FF0E0254AB201248BB322490968D0E981
:1077D00001C7C1F30221C1F10706032E00D9032618
:1077E000CB1C072B01D2002100E0091F04FA06F38D
:1077F0005B1E03EA0C038B4004FA01F6761E3E4042
:107800003343002A4FEA431104DA124B02F00F020D
:10781000083300E0104BD154007840B200F01F0153
:107820008C40400905EB8000C0F80041F0BDFFE747
:1078300002F01F008440500905EB8000C0F8804131
:10784000F4E7064A114001430248001F01607047F7
:107850000000FA050CED00E000E400E080FFFF1FEF
:10786000234F3E6806F0080676B322482249234A91
:107870000368B3F50D7F02BFDFF88480DFF88490E2
:10788000D9F8009001BFC8F80090DFF87C80DFF8DD
:107890007C90D9F8009001BFC8F80090DFF87080A4
:1078A000DFF87090D9F8009001BFC8F80090DFF8B9
:1078B0006880DFF86890D9F8009001BFC8F80090A0
:1078C000D1F800D0146820474FF000001449086038
:1078D000006885461348804713480047FEE7FEE7E7
:1078E000FEE7FEE7FEE7FEE7FEE7FEE7FEE7FEE770
:1078F000F480005008000020100000200400002048
:107900004050004014000020149000401800002057
:10791000389000401C0000204490004020000020CF
:1079200008ED00E0A1740101C9600101F54801689A
:107930000A68F5490A60426812684A6082681268FB
:107940008A60C2681268CA60026912680A61426984
:1079500012684A61826912688A61C2691268CA61E2
:10796000026A12680A62426A12684A62826A12688D
:107970008A62C26A1268CA62026B12680A63426B48
:1079800012684A63826B12688A63C26B1268CA63A8
:10799000026C12680A64426C12684A64826C126853
:1079A0008A64C26C1268CA64026D12680A65426D0C
:1079B00012684A65826D12688A65C26D1268CA656E
:1079C000026E12680A66426E12684A66826E126819
:1079D0008A66C26E1268CA66026F12680A67426FD0
:1079E00012684A67826F12688A67C26F1268CA6734
:1079F000D0F880201268C1F88020D0F88420126866
:107A0000C1F88420D0F888201268C1F88820D0F806
:107A10008C201268C1F88C20D0F890201268C1F830
:107A20009020D0F894201268C1F89420D0F89820C3
:107A30001268C1F89820D0F89C201268C1F89C20E8
:107A4000D0F8A0201268C1F8A020D0F8A4201268B5
:107A5000C1F8A420D0F8A8201268C1F8A820D0F856
:107A6000AC201268C1F8AC20D0F8B0201268C1F880
:107A7000B020D0F8B4201268C1F8B420D0F8B820F3
:107A80001268C1F8B820D0F8BC201268C1F8BC2038
:107A9000D0F8C0201268C1F8C020D0F8C420126805
:107AA000C1F8C420D0F8C8201268C1F8C820D0F8A6
:107AB000CC201268C1F8CC20D0F8D0201268C1F8D0
:107AC000D020D0F8D4201268C1F8D420D0F8D82023
:107AD0001268C1F8D820D0F8DC201268C1F8DC2088
:107AE000D0F8E0201268C1F8E020D0F8E420126855
:107AF000C1F8E420D0F8E8201268C1F8E820D0F8F6
:107B0000EC000068C1F8EC00704770B57D4D7E4C0C
:107B10002968206808606968606808600EF0B7FC32
:107B2000A968A0680860FFF7ABFAE968E068086038
:107B3000296920690860696960690860A969A069A4
:107B40000860E969E0690860296A206A0860696A72
:107B5000606A0860A96AA06A0860E96AE06A086069
:107B6000296B206B0860696B606B0860A96BA06B68
:107B70000860E96BE06B0860296C206C0860696C38
:107B8000606C0860A96CA06C0860E96CE06C08602F
:107B9000296D206D0860696D606D0860A96DA06D2C
:107BA0000860E96DE06D0860296E206E0860696EFE
:107BB000606E0860A96EA06E0860E96EE06E0860F5
:107BC000296F206F0860696F606F0860A96FA06FF0
:107BD0000860E96FE06F0860D5F88010D4F8800085
:107BE0000860D5F88410D4F884000860D5F88810AF
:107BF000D4F888000860D5F88C10D4F88C000860A0
:107C0000D5F89010D4F890000860D5F89410D4F806
:107C100094000860D5F89810D4F898000860D5F85A
:107C20009C10D4F89C000860D5F8A010D4F8A000EF
:107C30000860D5F8A410D4F8A4000860D5F8A810FE
:107C4000D4F8A8000860D5F8AC10D4F8AC000860EF
:107C5000D5F8B010D4F8B0000860D5F8B410D4F856
:107C6000B4000860D5F8B810D4F8B8000860D5F8AA
:107C7000BC10D4F8BC000860D5F8C010D4F8C0001F
:107C80000860D5F8C410D4F8C4000860D5F8C8104E
:107C9000D4F8C8000860D5F8CC10D4F8CC0008603F
:107CA000D5F8D010D4F8D0000860D5F8D410D4F8A6
:107CB000D4000860D5F8D810D4F8D8000860D5F8FA
:107CC000DC10D4F8DC000860D5F8E010D4F8E0004F
:107CD0000860D5F8E410D4F8E4000860D5F8E8109E
:107CE000D4F8E8000860D5F8EC10D4F8EC0008608F
:107CF0000648D0F8AC00002803D00549C86101202F
:107D0000086070BD6C690201003E0020D4000020B4
:107D100000C000500021016041608160C160491EC7
:107D20000161704770B50D00044603D16E21BBA000
:107D3000FEF73BFA204600F06BF908B1256001E040
:107D400060680560002065602860A068401CA06035
:107D5000E168814200D2E06070BD2DE9F0471F4626
:107D6000DDE9088A91460D460446FFF7D3FF002659
:107D70002BE05FEA080004D001464A4628460EF090
:107D800073F8781E86421AD1BAF1000F17D01DB9C8
:107D90004621A2A0FEF709FA204600F039F908B101
:107DA000256001E061680D60002165602960A068C0
:107DB000401CA060E168814205D2E06003E02946F2
:107DC0002046FFF7AFFF4D44761CBE42D1D3BDE83D
:107DD000F08770B50D00044603D18D218FA0FEF70A
:107DE000E4F9204600F014F900B1656020682860CD
:107DF0002560A068401CA060E168814200D2E0607C
:107E000070BD026852B11168016001B941608168BA
:107E1000491E816003698B4200D901611046704799
:107E20002DE9F04791460F4605004FF0000803D1B9
:107E3000C4217AA0FEF7B9F900262C6819E0BC42EB
:107E400002D14FF0010819E02868216826468842CF
:107E500005D1A1B22014D52370A2FEF7D2F9206873
:107E6000A04205D1A1B22014D6236CA2FEF7C9F915
:107E70002468002CE3D1B8F1000F1DD04F460BE071
:107E800024682CB9E32365A249463846FEF7B9F9C0
:107E9000A868401E7F1EA860002FF1DC20686EB12C
:107EA00030606868A04200D16E60A868401EA8607B
:107EB0002969814200D92861404688E72860F0E7B7
:107EC00070B515460E46040004D140F20D1153A0C2
:107ED000FEF76BF925B94FF4877150A0FEF765F9ED
:107EE00036B1286830606068A84205D1666005E058
:107EF000206800682060F6E700202860A068401E27
:107F0000A0602169814200D9206170BD006888426B
:107F100001D00028FAD1884201D101207047002009
:107F2000704770B50C46054600F072F820B14FF46A
:107F3000A3713AA0FEF739F9204600F069F820B1A4
:107F400040F2471135A0FEF730F9696820680860F3
:107F50006068686000202060A968A2681144A96078
:107F6000A06070BD70B515000E46044604D14FF4F4
:107F7000AD712AA0FEF719F99EB10020236801E037
:107F800018461B68B34201D0002BF9D148B10560F7
:107F90002B60A068401CA060E168814200D2E060D4
:107FA00070BD29462046BDE8704012E770B5150047
:107FB0000E46044604D140F2871118A0FEF7F5F8EA
:107FC0005EB1236800E01B68B34202D0002BFAD1F7
:107FD00003E013B1186828B105E029462046BDE842
:107FE00070409FE66560186828601D60A068401CAE
:107FF000A060E168814200D2E06070BD01460020CF
:10800000096802E00968401C80B20029FAD1704773
:10801000006808B10020704701207047636F5F6CF3
:108020006973742E6300000010B50022835C8C5CC1
:10803000A34201D0002010BD521CD2B2062AF5D3B3
:10804000012010BD10B51C49052001F0A0FB002146
:10805000BDE81040052001F0D5BB10B50446012352
:108060004FF60542002140F6010001F063FA0021BD
:108070000170B4F1B43F0FD0B4F1D33F0ED0B4F1DE
:10808000E23F0DD0B4F1A63F0CD0B4F1973F0BD036
:10809000B4F1863F0AD00BE0FF2108E0FE2106E0A4
:1080A000FD2104E0FC2102E0FB2100E0FA21017047
:1080B000BDE810400BF0F5BB7C6A020170B51A46B2
:1080C0000D468223002140F6010001F033FA0446F8
:1080D000286805BAF02D03D8E8B2FEF744FA00E0AC
:1080E00028686571290A2171090AE170090AA170DD
:1080F0006072000A2072000AE071000AA071082074
:1081000060700020207020460BF0CBFB002070BD7B
:1081100070B50C4601234FF60242002140F60100E3
:1081200001F008FA0646D4E9000204BA15BAF02CA8
:1081300003D8A9B2E0B2FEF734FA2560FA488442C7
:1081400003D1FA49C5F383500870002030703046DF
:108150000BF0A7FB002070BD70B50C4601234FF655
:108160000442002140F6010001F0E4F905462078C0
:10817000012801D012200DE0601C05F025F934F82B
:10818000010F618840EA01404FF080414862A088B9
:1081900088620020287028460BF083FB002070BD09
:1081A00070B50D4601234FF60542002140F601004F
:1081B00001F0C0F90446287818B14FF0B430FDF74B
:1081C000E3FF1220207020460BF06BFB002070BDF7
:1081D00010B50C4601234FF60642002140F601007F
:1081E00001F0A8F92168D24B09BACA1A994231D0D4
:1081F00013DCD04BA1EB0302994225D006DCB1F58C
:10820000164F1FD0CC4A89181AD11DE0B2F57E4F07
:108210001CD0CA49511813D11AE0C949531A8A42CD
:108220001ED006DCC749511816D0B1F5A02F07D1D2
:1082300014E0C349C943591814D0B1F5300F13D015
:10824000122115E0682110E009210EE008210CE060
:1082500007210AE0062108E0052106E0042104E0E8
:10826000032102E0022100E00121B74A91610021CF
:1082700001700BF016FB002010BD2DE9F047894678
:1082800001234FF60742002140F6010001F052F9A8
:10829000AD4C054648F6020A60684FF480374FF04F
:1082A000E0264FF0000803280AD300215046FEF7CD
:1082B000ADFF00210846226AFFF7A7F9C6F88071D2
:1082C00099F80000606003280AD301215046FEF7A8
:1082D0009DFF01210020226AFFF797F9C6F800717F
:1082E00085F8008028460BF0DCFA0020BDE8F08716
:1082F00070B50D4601234FF60842002140F60100FB
:1083000001F018F990490446286888600DF07DFF57
:1083100002460B4600208D490DF0F7FE8A4B1033C4
:108320001A1FFEF727FC0020207020460BF0B9FA38
:10833000002070BD10B50C4601234FF60942002104
:1083400040F6010001F0F6F87F4A216851610021F2
:1083500001700BF0A6FA002010BD10B50C234FF6EB
:108360000A42002140F6010001F0E4F876490A795A
:1083700042708A68426049698160002101700BF097
:1083800090FA002010BD2DE9F0470D460C234FF662
:108390000B42002140F6010001F0CCF82A78044697
:1083A000082A55D26878684E00274FF0FF0820B1A0
:1083B000012830D0022849D005E0211D1046FEF7E3
:1083C0008EFF012802D084F8008043E060680DF041
:1083D0001CFF8046894628785D4951F820000DF041
:1083E00014FF00225B4B0DF01EFE42464B460DF083
:1083F0008CFE0DF017FFA060B0600DF006FF024686
:108400000B46002051490DF080FE4F4B10331A1FD0
:10841000FEF7B0FB18E0688808B94FF4FA60F06224
:1084200028783063B06B78B92878FEF78BFF02208C
:1084300070630120B063802001F060FD05214FF4DE
:108440004070726B01F021FB277003E0B763FBE71C
:108450001220207020460BF024FA002046E710B5C9
:108460000C4601234FF60D42002140F6010001F0B9
:1084700061F82278384900230AB10A6000E00B60F5
:108480006178364A09B1116000E0136003700BF0A7
:1084900008FA002010BD10B50C4601234FF60E421D
:1084A000002140F6010001F045F82178264A00231A
:1084B00009B1D16100E0D36103700BF0F2F9002043
:1084C00010BD2DE9F0410E4601234FF60F42002169
:1084D00040F6010001F02EF80746307812231F28DD
:1084E00009D87178012906D8B278022A03D801295F
:1084F00003D1012A01D93B7054E000F00705184A66
:10850000C00802EBC004294600222046FEF7FEFF09
:1085100070780121012825D0B07820B1012836D00B
:1085200002283DD137E02EE02C0200403C00002024
:108530006766160000521100EFEEEEFFA929FDFF5D
:10854000CCCC1C006766F6FFD400002080842E414E
:108550008C6A020180846E4138000020A80000204F
:1085600044000020A9400D4620460322FEF7E2FF0A
:10857000B07829460028204602D0FEF7F3FF0FE02E
:10858000FEF7F3FF0CE0A9402046012206E0A940D7
:108590002046022202E0A94020460022FEF7CAFF40
:1085A0000020387038460BF07CF90020BDE8F081DF
:1085B00070B50D4602234FF61042002140F601002F
:1085C00000F0B8FF044628781F2803D9FF20607008
:1085D000122003E0FFF7ABF8607000202070204607
:1085E0000BF05FF9002070BD10B501234FF6134268
:1085F000002140F6010000F09DFF112101700BF0F9
:1086000050F9002010BD2DE9F041FE4CA06B78B36D
:10861000802001F0BAFC4FF4407650B3FEF7ABFE79
:1086200040B30DF0F2FD05460F46F749206B51F8B7
:1086300020000DF0EAFD0022F44B0DF0F4FC2A4678
:108640003B460DF062FD0DF0EDFDA0600DF0DDFD8F
:1086500002460B460020EE490DF057FD04F11003D1
:108660001A1FFEF787FA802001F064FCE26A03E03B
:1086700006E007E0FFE7626B0521304601F005FAEE
:10868000002093E7206BFEF75DFE802001F036FCB2
:10869000F1E7F0B5DF490B68DA4AC3F307414FB29F
:1086A000D2F88440C3F307215EB249B29C4248D05D
:1086B00042F8843FB3018901CD1A4FF00D0C95FBB0
:1086C000FCF52B441BB2CD1A05EBD57503EB650504
:1086D0002DB2A5EB030C4FF0030E9CFBFEFC938028
:1086E000BC011182948355816344D380A5EB0C03B4
:1086F00013814B1B93FBFEF31D449581CB1AD38151
:10870000631A03EBD37301EB63031BB25D1A95FB92
:10871000FEF5D38229445182591B9182E11A91FBC3
:10872000FEF10B441383611A5183D483843A0021F0
:1087300002EB4103491C33F9884FA4111C800E2918
:10874000F6D34FF08044D4F80832B3490B40B2F866
:108750004010814201D237460EE0002102EB410574
:10876000B5F84250854204D202EB4100B0F988705E
:1087700002E0491C0D29F1D3A84800EA073018434C
:10878000C4F80802F0BD2DE9F0410446FDF7E3FF0F
:108790009C4F06460CB1257800E0FD8FE80702D01B
:1087A0003046FFF776FFDFF878C2A8073DD5B7F867
:1087B000640007EB4000B0F84030B7F8660007EB04
:1087C0004000B0F84010012080F31088DFF854E238
:1087D000DEF80000401CCEF80000DCF8C8209E4205
:1087E00022F0E05207D90CB1617814E097F86810D4
:1087F00001F007010FE08E4206D20CB1E1780AE0E9
:10880000B96EC1F3024106E00CB1A17803E0B7F8FC
:108810006810C1F3022142EA8161CCF8C810401E01
:10882000CEF8000001D180F31088680701D5CCF89C
:10883000A860BBE610B5734C94F83E00400702D028
:108840000020FFF7A0FFA28F32B1E08F20B10521F9
:1088500040F2013001F019F9002010BD10B50823D5
:108860004FF61742002140F6010000F063FE02219E
:108870004160002101700BF014F8002010BD10B50C
:108880000C4601234FF61942002140F6010000F08A
:1088900051FE002205E0A118236849799954521C21
:1088A000D2B221799142F6D8002101700AF0F9FF85
:1088B000002010BD10B50C4601234FF61A420021CE
:1088C00040F6010000F036FE002206E004EBC20391
:1088D00099685B681960521CD2B221789142F5D830
:1088E000002101700AF0DDFF002010BD70B50D46BB
:1088F00001234FF61B42002140F6010000F01AFE52
:108900000646002406E005EB84004168491C8847C0
:10891000641CE4B22878A042F5D8002030703046BC
:108920000AF0BFFF002070BD2DE9F0410E46322352
:108930004FF62042002140F6010000F0FBFD044606
:1089400030784FF00007010724D0C10701D07178BB
:1089500001B300F00F056570E80702D0A01DFDF718
:10896000ADFEA80704D57078221DA11CFDF70BFFF2
:10897000680703D504F12E00FDF765FE280703D52F
:1089800004F13000FDF73AFE277020460AF089FF17
:1089900000200BE6122020706770F6E770B50C46D9
:1089A00001234FF62242002140F6010000F0C2FDF3
:1089B00005462079122203283CD200212970207913
:1089C000104E20B101280BD002283DD13AE0F08FA3
:1089D00010B10C20287037E02046FFF7D4FE33E0BA
:1089E000E08838B3B0872078F0876078B066A178E7
:1089F00040EA0120B066E17840F2013440EA0140EB
:108A0000052111E0D40000208C6A020180846E41AF
:108A100080842E41B0800050FF0FE0FFFFFF1F0059
:108A200000800050B0000020B066204601F0A6F89B
:108A300010B109E02A7007E0B28F0521204601F04D
:108A400024F801E0B187F18728460AF02AFF0020C8
:108A500070BD2DE9F0470F4601234FF62342002158
:108A600040F6010000F066FD064678781F2801D91F
:108A7000122055E03A78DFF8FC93FF494FF00108E7
:108A8000002AFE4802682FD042F080720260C86F50
:108A90008A461F2814D800F00705C00809EBC00457
:108AA000002229462046FEF731FD08FA05F10D4661
:108AB00020460222FEF73EFD29462046FEF755FDE0
:108AC0007878CAF87C0000F00701C00809EBC00004
:108AD0000C4605463322FEF719FD08FA04F1284634
:108AE0000022FEF727FD1AE022F080720260C86FB4
:108AF0001F2814D800F00705C00809EBC0040022A5
:108B000029462046FEF702FD08FA05F10D462046EB
:108B10000222FEF70FFD29462046FEF726FD002023
:108B2000307030460AF0BDFE002097E470B50C4668
:108B300005234FF62442002140F6010000F0FAFC24
:108B400000210170E17812261F2908D8A1781F2979
:108B500005D821781F2902D861781F2900D906700D
:108B6000E378A27893420BD021788B4208D06578C5
:108B7000AB4205D08A4203D0AA4201D0A94200D11B
:108B800006702178417061788170A178C170E178B8
:108B900001710AF086FE002070BD2DE9F0410F46FC
:108BA00001234FF62542002140F6010000F0C2FCEF
:108BB00004463878B04E4FF48062002578B1796869
:108BC00069B146F8AC1F01211046FEF70FFBAC4817
:108BD0003168C16101220260AA4801600AE0AA4826
:108BE000416841F48061416000211046C6F8AC50F4
:108BF000FEF7FCFA257020460AF053FE0020D5E46B
:108C00002DE9F0470D4601234FF62642002140F69C
:108C1000010000F08FFC9D4B4FF00009964AC3F80D
:108C200004902C78DFF868A2E10714D0994996697E
:108C30004E60D6698E60166ACE60566A0E61D66E38
:108C40004E61166F8E61566FCE61966F0E62D66F53
:108C5000C1F800A04E62DFF840C2904EA10719D5BE
:108C6000854980319960D2F88010D960874901F137
:108C70000802C1F810C04FF08041D1F82012D16035
:108C8000824901F110028E6185490969D1604FF076
:108C900003015960610735D57F49DFF8FC81203930
:108CA000A8F10C085A6803EBC202916004C95F681E
:108CB00003EBC707FA605A68521C5A604145F1D964
:108CC000754F1C37596803EBC101C1F808C05CF847
:108CD000041B5A6803EBC202D1605968491C5960F1
:108CE000BC45EFD96C4A8032944603EBC1018A60DF
:108CF00002CA5F6803EBC707F9605968491C5960ED
:108D00006245F2D9210742D53246596803EBC101C9
:108D10008E6002CE5F6803EBC707F9605968491C93
:108D200059609642F1D95D495C4F103130375A682D
:108D300003EBC202916004C95E6803EBC606F260F1
:108D40005A68521C5A60B942F1D94C494B4F1439F8
:108D50000C3F03EBC202916004C95E6803EBC606D8
:108D6000F2605A68521C5A60B942F2D9434A4349E8
:108D700008325E6803EBC606B16040C95F6803EB6A
:108D8000C707FE605E68761C5E609142F1D9E1061D
:108D900030D5444F4349BC375A6803EBC202916057
:108DA00004C95E6803EBC606F2605A68521C5A603A
:108DB000B942F1D93C490E4603EBC202916004C9A5
:108DC0005F6803EBC707FA605A68521C5A60B142E9
:108DD000F2D93449E0390A1D5E6803EBC606B1607A
:108DE00040C95F6803EBC707FE605E68761C5E6083
:108DF0009142F1D9A1067CD52C4C2C4908345A68F3
:108E000003EBC202916004C95E6803EBC606F26020
:108E10005A68521C5A60A142F1D92449234A1031A0
:108E200018325C6803EBC404A16010C95E6803EBF0
:108E3000C606F4605C68641C5C609142F1D91B4911
:108E40001A4A2031283203EBC404A16010C95E68BD
:108E500003EBC606F4605C68641C5C609142F2D966
:108E60001249124A3031383203EBC404A16010C9F0
:108E70005E681DE044000020D4000020C480005043
:108E800000C0005074390020006000407839002094
:108E9000F066A55AD83D0020200200401080005006
:108EA0000080005000A1004000A5004000E00050FC
:108EB00003EBC606F4605C68641C5C609142D3D925
:108EC000424A42491C3203EBC404A16010C95E68E7
:108ED00003EBC606F4605C68641C5C609142F2D9E6
:108EE0003A4940310A1D03EBC404A16010C95E6811
:108EF00000E007E003EBC606F4605C68641C5C609D
:108F00009142F0D9002110E05E6805EBC10203EB4D
:108F1000C6065468B4605C68926803EBC404E260FF
:108F20005A68521C491CC9B25A606A788A42EBD806
:108F30005E680EB1C3F800A0254901F58B65C1F844
:108F4000586400210BE0224AD2F8584403EBC102D6
:108F5000491C97683C442C60D26822442A608E42A7
:108F6000F1D880F800900AF09CFC0020DDE570B597
:108F70000D4601234FF62742002140F6010000F084
:108F8000D9FA044613492868401801D10CF0D3FBE4
:108F90000020207020460AF084FC002070BD70B5CF
:108FA000184600250C4B2C4633F83460864207D116
:108FB00003EBC4035C6834B10346A047054602E0F6
:108FC000641C1A2CF0D3284670BD000040E000500D
:108FD00078390020FF0503FBAC6A020170B56821F7
:108FE0002C480CF05AFF2B4814213C300CF055FF54
:108FF00028480A2150300CF050FF264D00246C66A2
:10900000C5F85A40C5F85E40A5F8624000F044F843
:109010006C61AC612C606C60AC62EC6200F0ACFB2B
:10902000BDE8704000F02DBD10B51A48FEF7E9FE0E
:1090300010B100F0C6FAF8E7164C14342046FEF7DB
:10904000E0FE10B100F0BDFAF8E7124C28342046DB
:10905000FEF7D7FE10B100F0E4F9F8E7BDE81040E4
:1090600000F090B810B500F08AF808B1002010BDEB
:10907000012010BD30B5074C257B057094F8200009
:10908000087094F834001070B4F864001880002060
:1090900030BD0000CC01002034214E480CF0FDBE54
:1090A00070B503260D4604460C2800D22DB9552371
:1090B00049A2FDF7A6F80C2C04D24648002600EB86
:1090C00084004560304670BD70B504460C2804D35A
:1090D000652341A20021FDF794F8012080F3108858
:1090E000404B1868401C18600C2C05D239490122ED
:1090F000A2400D6815430D60401E186001D180F339
:10910000108870BD70B504460C2804D3742332A2B5
:109110000021FDF776F8012080F31088314B1868A4
:10912000401C18600C2C05D22A490122A2400D686F
:1091300095430D60401E186001D180F3108870BD0A
:1091400070B5002504460C2804D3852322A20021F3
:10915000FDF757F8012080F3108822490868401C69
:1091600008600C2C04D21B4A1268E24002F0010590
:10917000401E086001D180F31088284670BD154854
:109180000068704713490020086070472DE9F041DE
:10919000104D40F207164FF48877296816E0B1FAAF
:1091A00081F0C0F11F00C4B20C2C04D333460AA2D4
:1091B0002046FDF726F805EB8400406808B180479B
:1091C00003E0394604A0FCF7F0FF29680029E6D146
:1091D000BDE8F081340200206B655F6576656E74D2
:1091E0002E630000B0000020F0B5CB1CCF4E23F062
:1091F000030406EB8003012585F31088CC4DDC6366
:1092000011442F6821F003017F1C091B2F6061802E
:10921000DC6B4AF25A5106EB40002180DC6B0021E6
:109220006160DB6B9960A0F850202868401E2860C0
:1092300001D180F31088F0BD0246BC4B10B503EBA2
:10924000820103EB42020020C96BB2F850300122C8
:1092500082F31088B64C0B4423F0030322685B1A98
:10926000521C22604988994200D10120521E22607E
:1092700002D1002181F3108810BD2DE9F047C01CF8
:10928000002320F00300001D1C460C2800D20C20F7
:10929000012282F31088DFF898C2DFF890A24FF025
:1092A0000509DCF800707F1CCCF800706518B5FB70
:1092B000F9F609FB16520AEB820200F10C06D26B9A
:1092C00010E0558885420CD3B54204D2D2F808800C
:1092D000B8F1000F05D01BB1B3F80280A84500D942
:1092E00013465268002AECD11BB15A88B24200D210
:1092F0001046641CE4B2052C01D2002BD6D07F1E90
:10930000CCF8007002D1002080F3108813B1012046
:10931000BDE8F0870020FBE72DE9F04F8A460021E9
:10932000C01C20F00302121D0D4689460C2A00D2F3
:109330000C22012080F31088DFF8F4B1DFF8ECC1D3
:109340004FF0050EDBF800305B1CCBF8003005EB6E
:109350000A03B3FBFEF40EFB14370CEB870000246A
:10936000C06B02F10C0611E043881C4493420CD3FD
:10937000B34204D2D0F80880B8F1000F05D019B17B
:10938000B1F80280984500D9014640680028EBD129
:1093900019B14888B04200D202460CEB4700B0F841
:1093A00050301B1B9BB2A0F85A3011B11344A0F8E7
:1093B0005A306D1CEDB2052D01D20029C7D0002313
:1093C00018460CEB4004401CB4F85A40C0B2234489
:1093D0000528F6D3DCF86400984201D2CCF864305A
:1093E000A1B14888904207D1D1E90103586048688B
:1093F00030B18B68836003E0801A80B248800144FA
:1094000048F238304A8021F8040B8946DBF8000026
:10941000401ECBF8000001D180F310884846BDE81B
:10942000F08FF0B50023002869D0021F4FF20F0122
:10943000118054880021012585F31088DFF8F0E0C1
:109440003A4EDEF800506D1CCEF8005006EB830556
:1094500006EB4307ED6BB7F85070A84204D32F44D6
:10946000874201D3294601E05B1CDBB2052B01D208
:109470000029EBD000204AF25A552BE04F880F44C8
:10948000974210D14888204482B24A8048685518D3
:10949000A84226D145882A444A8042684A604068EA
:1094A000F8B181601DE08A4212D2426090601019CA
:1094B0001580884208D148685060486800B18260D1
:1094C0004888204450800CE051608A60548008E055
:1094D000084649680029D1D14260C2E90110548090
:1094E000158006EB430030F85A1F091B0180DEF897
:1094F0000000401ECEF8000001D180F31088F0BDBE
:1095000030F8040CA0F50341383901D00120704730
:1095100000207047054901EB4000B0F85A00704741
:1095200002490022486E4A6670470000CC010020C4
:10953000B00000202DE9F0410F4604461D461646B6
:10954000012103F10C00FFF7E7FE4FF0FF3101604E
:109550008480C780068145810C30044629460CF082
:109560009CFC2046BDE8F08110B50C38012181F348
:1095700010881B4C1B4A2168491C2160014610467B
:10958000FEF7D0FB2068401E206001D180F31088D8
:10959000BDE810400520FFF797BD10B50023FFF789
:1095A000C9FFBDE81040DFE7A0F10C03D9801A81A4
:1095B000DAE730B4A0F10C04A180E280238130BC52
:1095C000D2E7FFF72EBF30F8060C704730F8040CD6
:1095D000704750F80C0C401C00D001207047000070
:1095E000B0000020CC0100202DE9F04190460F464C
:1095F0000546002604681BE041462046B847A8B14E
:1096000020680EB1306000E02860206810B10020B2
:10961000206000E06E6034B1A868401EA86029692F
:10962000814200D928612046BDE8F08126462468A1
:10963000002CE1D1F7E72DE9F041046890460F4690
:10964000054600263CB1214638464246904718B9A7
:1096500026462468F6E76F603C600EB1376000E094
:109660002F60A868401CA860E9688142DCD2E860ED
:10967000DAE70000C088884201D10120704700204D
:10968000704770B58A880D46521E16D42C684FF666
:10969000FF7134F83230834201D08B420BD1042069
:1096A00000EBC206A05918B98F21C5A0FCF77DFDBB
:1096B0002868805970BD521EEBD5002070BD70B572
:1096C000012080F31088C14E3068401C3060C048D3
:1096D000FEF797FB04464FF0FF3020603068401ED5
:1096E000306001D180F31088FCB12046FFF708FFFD
:1096F0000028E188A08804D0E723B1A2FCF781FD0F
:1097000013E000F022F9050024D004F10C012389B4
:10971000E288A088A84718B3012806D0022823D0E1
:109720004FF48671A6A0FCF740FD012080F310885D
:109730003068401C3060A6480068D8B1002010B1E5
:109740000520FFF7DFFC3068401E306001D180F358
:10975000108870BDEF219AA0FCF76AFD0020DAE7BF
:109760002046FFF72EFFE0E7994821461430FEF728
:10977000D9FADAE70120E2E710B51C2195480CF090
:109780008CFBBDE8104094490520FFF789BC70B5FB
:109790000022012383F310888C4C23685B1C236018
:1097A000072807D34FF4987385A20721FCF729FDFA
:1097B000032207E0874B53F820500DB1042201E04B
:1097C00043F820102068401E206001D180F31088EB
:1097D000104670BD30B502460020012181F310888B
:1097E0007A4B1968491C1960072A01D3022003E04B
:1097F000784D002445F82240491E196001D181F3BB
:10980000108830BD2DE9F041050AC7B20024884612
:109810000646072F05DB4FF4B37169A0FCF7C5FCC2
:1098200003E06C4850F8274034B940F26D1364A24D
:1098300029463846FCF7E5FCE189A94205DC4FF4EE
:10984000B7735FA22846FCF7DCFCE089A8422CDD58
:10985000A068441904D14FF4BB7159A0FCF7A5FCD2
:109860002178414521D03546594E84F80080143680
:109870002A465A493046FFF7B7FE002815D0012185
:1098800081F31088514C524A2168491C21600146DD
:109890001046FEF747FA2068401E206001D180F391
:1098A00010880520FFF710FCE2E7BDE8F0812DE904
:1098B000F041050AC6B20024FF27072E05DB40F25F
:1098C0008B113FA0FCF771FC03E0424850F82640A2
:1098D00034B94FF4C9733AA229463046FCF791FCDB
:1098E000E189A94205DC40F2931335A22846FCF732
:1098F00088FCE089A84201DDA068475D3846D4E7CE
:1099000000207047022070472DE9F0418046304822
:10991000002600F11407046814E0A17941450AD13A
:1099200025462468002229462948FEF779FA284668
:10993000FFF747FE00E02468002CEED1002EB4D1E2
:109940003C680126002CF7D1AFE72DE9F04700274E
:109950000D0ACEB288468146072E05DBAB2318A23E
:1099600031464846FCF74DFC1A4850F82640E0893D
:1099700010B32CB9B22312A241463046FCF741FC89
:10998000E189A94204DCB3230DA22846FCF739FC87
:10999000E089A84210DD206840B1A168495D00EB74
:1099A000C1014846FFF76DFE070005D1616819B196
:1099B0004846FFF766FE07463846BDE8F0870000D8
:1099C0006B655F7461736B2E63000000B000002054
:1099D000CC01002068020020BF96010175960101AC
:1099E00060B14FF080418068C1F8F400C868C0F3EE
:1099F0008010002804D140208861012000F0F8B8D0
:109A0000704780688968401AC0F31600B0F5800F6F
:109A100001D301207047002070470A0C838889B267
:109A2000934204D1C088884201D1012070470020B0
:109A3000704770B57D4D0620FFF764FBAC6A2CB112
:109A4000A068401E00F0E3F820B10BE0BDE87040D4
:109A50000020C5E72046FFF7C3FFA06800F0D7F855
:109A600000280DD071482830FEF7CBF90446C18894
:109A70008088FF22FFF791FD2046FFF7D2FCDAE74E
:109A800070BD6B490620FFF70BBB2DE9F047DFF8EF
:109A90009C9107461546D9F828000E464FF000085D
:109AA000B2F5800F01D3634D01E005B9012538B14E
:109AB0008188B94204D1C088B04201D14FF0010879
:109AC0005A4846EA074228305B498246FFF78CFD38
:109AD000040006D101210C20FFF71EFC87800446FC
:109AE000C68000F08EF80544C5F31600A060534A06
:109AF00021465046FFF79FFDB8F1000F03D1D9F87A
:109B00002800A04203D1D9F82800FFF769FF2846B2
:109B100000F07DF8002804D0BDE8F0470620FFF7EC
:109B2000D3BABDE8F08770B5404D0246AC6A002C50
:109B300023D0A38805F12800934211D1E3888B42FA
:109B40000ED1FEF75EF9AD6A2846FFF749FF6DB109
:109B5000A86800F05CF848B10620FFF7B5FA05E008
:109B600041EA02423449FFF73FFD0446002C04D08D
:109B70002046BDE87040FFF754BC70BD2B4A926A86
:109B800006E09388834202D1D3888B4203D01268C7
:109B9000002AF6D102E00AB1012070470020704788
:109BA0002DE9F0410646214888460125876AE7B13C
:109BB0000BF01FFA044600F024F83989214A081AEC
:109BC00000041F4904EB10300840211A21F07841AD
:109BD00091420AD9001B316820F07840814204D9B3
:109BE000404501D9306000E000252846BDE8F081FD
:109BF0004FF08041CA6822F0400242EA8010C860FB
:109C0000704710B50BF0F5F9C0F3161010BD10B584
:109C10000446FFF7F6FF001BC0F31600B0F5800FF7
:109C200001D2012010BD002010BD0000CC01002099
:109C3000339A0101FFFF3F001B9A0101039A0101C2
:109C4000F0FFFF0700BB300000207047704740B2B4
:109C5000704770477047002070474FF08041086B95
:109C600040F007000863704700B58BB01C490162E3
:109C70001C4941621C4941610F2180F82C101B498D
:109C800081621B4901601B4941601B49C161002081
:109C9000694642000A54401CC0B22828F9D3282241
:109CA00016480CF0E1F81648C16821F0FE4141F079
:109CB0005061C160C16821F47F0141F40001C160BD
:109CC000C16821F4F85141F44071C160C16821F0CC
:109CD000FF0141F08001C160411301600BB000BD84
:109CE000499C01014D9C0101579C01015B9C0101B4
:109CF000539C0101559C01014F9C010140200040F3
:109D0000740000404FF000404108C861C869C00FAE
:109D1000FCD1086AB0F5EA7F01D30120704700202A
:109D20007047A54810B5002141600181FFF756F941
:109D3000A248A349006888421DD04FF42472A1496B
:109D40000020FFF751FA4FF45C729F490120FFF7A2
:109D50004BFA4FF480629D490220FFF745FA4FF419
:109D600000629B490320FFF73FFA40F6C45299492D
:109D70000420FFF739FA9848FFF776FF0020FCF738
:109D800033FA01F079F909F06AFD0AF0DFFEFEF717
:109D900059F900200BF009F987490120091DC87005
:109DA000087110BD704710B5012080F310888B4CEE
:109DB0002068401C2060FFF737F909F061FD0AF0C8
:109DC000D9FE01200BF0F1F82068401E206001D17F
:109DD00080F3108810BD0AF0FDBE77487649001D5B
:109DE0000078096800F00100084301D1FFF7CEB9FF
:109DF000704710B5012181F31088784C2168491C07
:109E0000216010B1012803D008E0FDF768F8FEE7F3
:109E1000FDF765F84FF0A630FCF7B6F92068401E54
:109E2000206001D180F3108810BD6D4800680128C2
:109E300006D18007006E002802D06A480068D8E783
:109E400070472DE9F8434FF47A5000240090FFF753
:109E500009F900284FD0DFF86081D8F80000002809
:109E600049D108F10405E878F0B32888E0BB534EE7
:109E7000534F3068B84204D07068032801D30124DE
:109E800039E0287910B94FF448700090A9786846F5
:109E9000FFF786FE40B30AF096FE28B3A97868461D
:109EA0000BF06BFB00B33068B84202D001F016F93A
:109EB000D0B14D48009C844203D3EE214BA0FCF767
:109EC00074F9B068A0B160434FF4C861B0FBF1F021
:109ED000401E297909F02CFB3F480121C8F80010E9
:109EE000806A8047042000E005E042490860C6E738
:109EF000E0026421EAE72046BDE8F88310B50121BD
:109F000081F310882C4A354C121D138821680343B5
:109F100013802160002902D1002080F3108810BD39
:109F200010B50120FFF7EAFF09F020FBBDE8104063
:109F300001F0D0B810B5012181F310881E4A274CDA
:109F4000121D13882168834313802160002902D1E8
:109F5000002080F3108810BD174810B5001D007850
:109F6000C00708D009F00DFB0620FFF7ADF8BDE8EB
:109F700010400120DEE710BD40F27121B0FBF1F08E
:109F80000D49801C091D88707047012181F31088DC
:109F9000094A124B121D12881968104019600029D5
:109FA00001D181F3108870470348001DC0787047C5
:109FB0000148001D0079704768000020D40000208F
:109FC000A55AAA5524160020C01800203C1C0020C9
:109FD000482000205428002084020020B0000020E7
:109FE000B4000020B800002040420F007277697072
:109FF0002E63000010ED00E02DE9F041002307463C
:10A00000154608201C4657F8206051F820C016EB72
:10A010000C0644EB040CF2184CEB040C0CF001039E
:10A02000234301D0012300E0002345F820202E46E1
:10A03000401EE8D5304600F0E6FEAC62BDE8F08197
:10A040002DE9F041002486460823204651F823607C
:10A050005EF82350371940EB000CEF1B70EB0C0738
:10A06000344406D22C1B241C42F823404FF0010438
:10A0700005E0A5EB040542F823504FF000045B1EF9
:10A08000E4D5BDE8F041104600F0BDBE10B58CB07F
:10A09000044601466A46FE48FFF7D2FF214668465D
:10A0A00000F0BCFE0022A2620CB010BDF0B4002390
:10A0B00008221E4651F8225050F82240EF1846EB75
:10A0C000060CE71B76EB0C072B4406D2E31A1B1C8D
:10A0D00040F822304FF0010305E0A4EB030440F800
:10A0E00022404FF00003521EE4D5F0BC00F08BBEBE
:10A0F00010B5426A4B6A9A4211D808D3C2F10902DC
:10A100000BE051F8223050F82240A34202D94FF020
:10A11000000010BD03D302F10102092AF1D301208E
:10A1200010BD10B51446FFF767FFA06A18B12046AE
:10A13000BDE81040AAE7D6492046FFF7D9FF00281E
:10A1400004D02046BDE81040D149AFE710BDF0B4BF
:10A15000002508222B4650F8227051F82260BE19C3
:10A1600043EB030476195C4104F001041C4301D065
:10A17000012500E0002540F82260521EEBD5F0BC1E
:10A1800000F041BE10B5426A4B6A9A420AD810D319
:10A19000C2F109020BE051F8223050F82240A342EC
:10A1A00007D802D24FF0010010BD02F10102092AC6
:10A1B000F1D3002010BD2DE9F0430446DFF8D08232
:10A1C000806A8BB04FF00009E8B141462046FFF7A6
:10A1D000D9FF80B3002308224F4658F8226054F874
:10A1E000225016EB030C47EB0700B5EB0C0177EBA5
:10A1F000000006EB03001FD2281A001C44F82200BE
:10A200004FF001031EE0002108204A4654F8203098
:10A2100058F820505D1942EB02036D18534103F0CA
:10A220000101114301D0012100E0002144F8205038
:10A23000401EEBD514E008E0A5EB000144F8221025
:10A240004FF00003521EC8D50AE06A4621469048E6
:10A25000FFF7F6FE2146684600F0E0FDC4F82890BE
:10A26000002210464D4654F82010491945EB0203D0
:10A270005A084FEA310244F8202021F001028A1ADC
:10A2800000F1010023460928EDD30BB01846BDE8C4
:10A29000F04300F0B8BD30B50D460446816AA86AA7
:10A2A0008BB091B190B121462846FFF721FFC0B194
:10A2B0006A4621462846FFF7C3FE2146684600F05D
:10A2C000ADFD0020A0620BB030BD28B10BB0294617
:10A2D0002046BDE830403AE729462046FFF708FF10
:10A2E00028B10BB029462046BDE83040DEE66A467C
:10A2F00021462846FFF7A4FE2146684600F08EFD61
:10A300000120DFE72DE9F0410F468046816A0025F4
:10A31000B86A1446012659B130B341463846FFF7B2
:10A32000E7FE224648B341463846FFF789FE05E07E
:10A330000028394640460DD0FFF75EFE54492046BE
:10A34000A562FFF7D5FE00281CD02046BDE8F041ED
:10A350004F49ABE6FFF7CCFE224610B139464046E6
:10A36000E3E7414638460AE039464046FFF744FEF7
:10A370002046A662BDE8F04188E639464046FFF730
:10A380005FFEF5E75AE670B505468CB00C461646FA
:10A39000104600F050FD286AA04208D331462846F6
:10A3A00000F03CFD286A001B30620CB070BD6846AE
:10A3B00000F041FD0120CDE90840324669462846BB
:10A3C000FFF7A0FFF1E710B54342421E0A60C1E962
:10A3D00001304FF0000001F1100C4FF0FF34C86065
:10A3E000ACE815008862C1E9074301D0092000E00C
:10A3F0000820486210BD10B58CB00446684600F0D5
:10A400001AFDA06A20B922492046FFF771FE10B953
:10A41000A06A012822D1606A08280DD9C0F109007C
:10A42000694654F82000FFF7CEFFA06A694600286D
:10A43000204604D0FFF78BFEA06A18B10FE0FFF7AB
:10A440002AFFF9E712492046FFF752FE38B1A06A09
:10A45000012807D00E492046FFF728FE24E6A06A0F
:10A460000128FBD12046FFF711FE1DE62DE9F74F2D
:10A47000A0B00022E946144649F82240521CCA46C0
:10A48000122AF9D312940823A3461394002401E05E
:10A490005C6C020108225E4602EB030809EB8805AA
:10A4A00051F822C0D5F8048050F8237018EB040846
:10A4B00046EB0604E7FB0C84C5F80480521EEBD57E
:10A4C0005B1EE3D54B46002253F8224014B9521CC0
:10A4D000122AF9DBC2F11202C9F84820806A896A9F
:10A4E000884201D0012000E0002000244D46139056
:10A4F00000E0641C55F8240008B9092CF9D313981E
:10A50000FC491E901A4612988B6C984215D818D3A5
:10A51000C0F112000DE051F8203052F82060B34233
:10A5200006D0B34201D2012000E0002028B908E0A3
:10A53000401C1228EFDB00E0641C55F824000028C2
:10A54000FAD0002014A9021955F8222041F8202041
:10A55000401C0928F7D3084600F055FC04F1090017
:10A56000122814A811D2FFF746FF14A9002001EB0E
:10A570008002526841F82020401C0828F7D305EBE0
:10A580008400641C406A1C90E5E7FFF734FF14A8C0
:10A59000229900F043FC23B0BDE8F08F2DE9F04193
:10A5A0000646002015460823074656F82320044691
:10A5B0003846E2FB014045F823402A465B1EF4D5AD
:10A5C000104600F020FCB06AA8622846BDE8F041C1
:10A5D00011E710B5002250F8223051F82240A34272
:10A5E00001D0012010BD521C092AF4D3002010BD57
:10A5F00010B5C04904465031FFF7EBFF68B9BD49BB
:10A6000004F12C007C31FFF7E4FF30B9B94904F1C3
:10A610005800A831FFF7DDFF08B1002010BD012070
:10A6200010BDF0B5054600F12C0458300E46F9B0C7
:10A630000746014637AA2846FFF773FD42AA394666
:10A640002846FFF75FFE4DAA42A937A8FFF70EFF85
:10A650000BAA03214DA8FFF7A1FF6A463946204601
:10A66000FFF704FF37AA69462046FFF7FFFE16AA48
:10A6700037A92846FFF7FAFE0BA937AA0846FFF7C5
:10A68000F5FE42AA082116A8FFF788FF21AA42A9D1
:10A6900037A8FFF737FE37AA694621A8FFF7E6FE7D
:10A6A0003246022137A8FFF779FF214637AA08462C
:10A6B000FFF7DCFE69462CAA0846FFF7D7FE42AA40
:10A6C0002CA937A8FFF7D2FE4DAA082142A8FFF710
:10A6D00065FF58AA042116A8FFF760FF63AA21A905
:10A6E00058A8FFF70FFE6EAA63A90BA8FFF7BEFEDE
:10A6F00006F12C024DA96EA8FFF704FE37AA6946A1
:10A700002CA8FFF7B3FE06F15802082137A8FFF77F
:10A7100045FF79B00020F0BD2DE9F04F054600F16E
:10A720002C0800F15807ADF5277D0C46164601F1BF
:10A730002C0901F1580A104600F07DFB06F12C00AF
:10A74000A59000F078FB06F15800834600F073FBFB
:10A7500037A800F070FB0BA800F06DFB42A800F0DA
:10A760006AFB16A800F067FB21A800F064FB6846AE
:10A7700000F061FB4DA800F05EFB58A800F05BFB09
:10A7800063A800F058FB2CA800F055FB79A800F056
:10A7900052FB6EA800F04FFB2846FFF729FF002868
:10A7A000204608D0FFF724FF00287CD13146204600
:10A7B00000F04BFBACE0FFF71BFF10B13146284621
:10A7C000F6E729462046FFF704FF58B941464846B8
:10A7D000FFF7FFFE0028E8D1206D012802D8E06CC9
:10A7E000002860D037AA39464846FFF73FFE0BAA3B
:10A7F00051464046FFF73AFE42AA39462046FFF747
:10A8000035FE16AA51462846FFF730FE16A942A883
:10A81000FFF7DFFE00286FD021AA0BA937A8FFF7AA
:10A8200071FD6A4616A942A8FFF76CFD58AA514669
:10A830003846FFF71BFE84A800F0FDFA8FA800F051
:10A84000FAFA9AA800F0F7FA694663AA0846FFF7F1
:10A850000DFE2CAA694663A8FFF708FE21A979AA74
:10A860000846FFF703FE6EAA16A963A8FFF7FEFDD0
:10A870009AAA02216EA8FFF791FE84AA58A979A886
:10A88000FFF7F4FD8FAA2CA984A8FFF73BFD4DAA82
:10A890009AA98FA8FFF736FD32464DA96846FFF703
:10A8A000E5FD84A800E02CE000F0C5FA8FA800F0D8
:10A8B000C2FA9AA800F0BFFA84AA4DA96EA8FFF7C1
:10A8C00021FD8FAA84A921A8FFF7D0FD9AAA0BA980
:10A8D0002CA8FFF7CBFD9AA98FA8A59AFFF712FD28
:10A8E0005A4658A92CA8FFF7C1FD01200DF5277D78
:10A8F00052E601E0886C02010BA937A8FFF769FE58
:10A9000010B13146FE4853E731462846FFF789FE2D
:10A910000020EBE730B4002319461D4650F82120F3
:10A92000521945EB030463084FEA320340F8213023
:10A9300022F00103D31A01F101010929EED330BC41
:10A9400000F061BA70B5ACB00026054686620C46D0
:10A950000BA800F070FA684600F06DFA21A92846AD
:10A9600000F05CFAE64816A97C3800F057FA01209E
:10A970001390CDE90860149032E021A8FFF7CAFFD8
:10A980001398C0070BA805D0FFF715FC2998C0073E
:10A99000F3D00BE0FFF7BEFFF8E716A8FFF7BAFF0A
:10A9A0000898C007684610D0FFF705FC1E98C0073E
:10A9B000F3D016A921A8FFF79BFB48B116A921A83F
:10A9C000FFF774FB69460BA808E0FFF7A3FFEDE76C
:10A9D00021A916A8FFF76AFB0BA96846FFF75BFCE5
:10A9E0002A980028D2D10A9828B9C54869467C38E7
:10A9F000FFF7C8FB10B96846FFF7FDFC2146684623
:10AA000000F00CFA2CB070BD70B58CB00D46044649
:10AA1000164669465830FFF795FF2A466946204694
:10AA2000FFF724FD3246694604F12C00FFF71EFDB6
:10AA3000BBE42DE9F041B348C2B00468256885B392
:10AA40008046842204F59C7168460BF00DFA84223E
:10AA500004F5DE7121A80BF007FA94F84C03D4F842
:10AA6000403204F5117604F53277690721D10321CC
:10AA700001EBD50121F0030121440322D1F8081193
:10AA800002EBD50212F0030204F1040604F1880778
:10AA90000ED0012A09D0022A04D0032A09D1C8B253
:10AAA00007E024E0C1F3072003E0C1F3074000E022
:10AAB000080ED84010F0010F08D06A4639463046DB
:10AAC000FFF72AFE3146684600F0BFF921A9384653
:10AAD000FFF7A7FD394621A800F0B7F9D8F8001014
:10AAE0000868401E086002D0002042B04AE40120FD
:10AAF000FBE72DE9F047ACB00E46824691460BAC21
:10AB000001214FF45470FEF707FCDFF8F8810127AC
:10AB10000025C8F80000CDE909752846694641F8C6
:10AB20002050401C0928FAD321463046089700F0EF
:10AB300075F904F12C0106F12C0000F06FF904F115
:10AB40005801684600F06AF9D8F800104646883186
:10AB5000204600F07AF93168504601F5867100F020
:10AB60005DF93468CDE90975241D0020694641F876
:10AB70002050401C0928FAD321466846089500F069
:10AB80004DF904F12C016846089700F047F904F1EB
:10AB900058016846089500F041F931684FF490700B
:10ABA000B9F1000F086006D0FFF743FF0028FBD083
:10ABB0002CB0BDE8F087FFF73CFFF9E72DE9F0473F
:10ABC000A2B000269A460124179601961F230DF184
:10ABD0005C090DF104080C96C51810F803C015F8AF
:10ABE000037D07EB0C6795F802C06D784FEA0C4CBB
:10ABF0000CEB05252F4449F82470CD1811F803C03B
:10AC000015F8037D07EB0C6795F802C06D784FEAE5
:10AC10000C4C0CEB05253D4448F8245002EB030591
:10AC200012F803C015F8037D1B1F07EB0C6795F89E
:10AC300002C06D784FEA0C4C0CEB05253D4408EB47
:10AC4000840704F10104FD62C6D5484600F0DBF834
:10AC500001A800F0D8F80CA800F0D5F80B965246E1
:10AC600001A917A81696FFF744FF22B0A1E7264ACC
:10AC70000B46A2F12001A1E72DE9F05F224D00F182
:10AC80001807044600F1080B00F10C0A00F1100946
:10AC900000F114083E1D20350BF0D4F80146204683
:10ACA00000F0A9F80BF0CEF80146201D00F0A3F843
:10ACB0000BF0C8F80146584600F09DF80BF0C2F8BA
:10ACC0000146504600F097F80BF0BCF801464846A4
:10ACD00000F091F80BF0B6F80146404600F08BF812
:10ACE0000BF0B0F80146384600F085F80BF0AAF8F2
:10ACF0000146304600F07FF81F20215C41B905E095
:10AD0000D86C020174000020BC6B0201401EF4D517
:10AD1000401C02D120780028BED01F20215C2A5C74
:10AD20009142B9D801D3401EF8D5BDE8F09FF0B5E7
:10AD30004F4C1F2304F1200504F14006E75CCF547B
:10AD4000EF5CD754F75CC7545B1E5BB2002BF5DA9F
:10AD5000F0BD70B596B005460C46684600F06BF83D
:10AD60000BA8064600F067F83246424E6946306846
:10AD7000001DFFF749FE3068FEF753FB6E46DDB15C
:10AD80001F22012056F820104FEA1161A95456F8ED
:10AD900020104FEA114305EB0201A1F10301121F3C
:10ADA0008B7036F820304FEA13234B7016F82030A2
:10ADB0000B7000F10100E5D5002C1AD01F200122F4
:10ADC00006EB820102F10102CB6A4FEA13632354BE
:10ADD000CB6A4FEA134504EB0003A3F10303001F02
:10ADE0009D708D8D4FEA15255D7091F82C101970AE
:10ADF000E6D516B070BD01700A0A42700A0C827066
:10AE0000090EC1707047002150F8212012B9491C69
:10AE10000929F9DBC1F1090141627047002250F8AC
:10AE2000223041F82230521C092AF8D3426A4A6281
:10AE3000806A8862704700210A4640F82120491C38
:10AE40000929FAD342628262704770B50C46054602
:10AE5000FFF7E4FF04F12C0105F12C00FFF7DEFF02
:10AE600004F1580105F15800BDE87040D6E7000034
:10AE7000FC6B02017400002010B501231022002198
:10AE800040F60300FEF756FB0024047008F009FDAD
:10AE9000A2488481C17B817300F024F9BDE8104091
:10AEA0000420FFF747B8F8B5012944D09B4C04F1C2
:10AEB0000C06227C72B12046012A807C1FD0022A17
:10AEC0003CD0032A52D0BDE8F84040F2593194A05A
:10AED000FBF76BB9E07BA074012801D002285BD19D
:10AEE0009149924A095C012020742068002304687B
:10AEF0003046A047BDE8F8400420FEF7FFBF012818
:10AF000004D0022804D040F2DE231DE0082023E014
:10AF10008248C1897180308809F0EAFA024660608F
:10AF2000708820B13AB1BDE8F84000F0E9B8338844
:10AF30000146184617E0BDE8F8409DE701280AD011
:10AF400002280DD04FF44F7301B075A2BDE8F04058
:10AF50000021FBF756B90920BDE8F840FEF7B4B868
:10AF600071883088626809F0FBFA15E070A000254E
:10AF7000006800900422314668460AF0A0FF78B1CC
:10AF80000420FEF7BBFF00202118401C4A7BC0B202
:10AF90000A730328F8D355B1BDE8F84000F00BB8A8
:10AFA0000022114640F6034009F0F6F9F4E7BDE847
:10AFB000F84000F097B8594810B5002101740068B6
:10AFC0000B46012104685548584A0F30A047BDE898
:10AFD00010400420FEF7AEBF10B521B140F2B11110
:10AFE0004FA0FBF7E2F8BDE810400720FEF76CB871
:10AFF00010B50720FEF786F84848806800B1804702
:10B00000BDE810400220FEF795BF70B5434C082004
:10B010000C34FEF777F8414D2088A97B79B109F00F
:10B0200085F90146A07881420FD30121FEF774F91A
:10B03000686050B1A078BDE8704000F061B80022AF
:10B0400009F0AAF9BDE87040B5E7BDE8704013E724
:10B0500070B5324C0920FEF755F82546A17BA08932
:10B060006A6809F099F9686818B1FEF7DAF9002002
:10B070006860BDE870409EE710B5284C206080688D
:10B080008047012060742B490720FEF709F82A4900
:10B090000820FEF705F829490920FEF701F8BDE868
:10B0A000104088E72DE9F04106461C4615460F463C
:10B0B0000220FEF723FF781E1849067000228C60DC
:10B0C0004A74096813461E4A4C68691CA446BDE8C8
:10B0D000F041604711480068806800470F480068E9
:10B0E000C06800470D4830B4032101740068002394
:10B0F000012104680948A44630BC0C4A0F3060475F
:10B100000146064830B40222027411C800230568C3
:10B110002046AC4630BC054A60470000B80200201B
:10B120006834746C2E6300005C6D0201A7AE0101EF
:10B1300001030C00F1AF01010BB0010151B001019D
:10B14000D9AF01012DE9F041804615466FF080002E
:10B15000069E1C460F4610EAC51F04D040F205119A
:10B16000F6A0FBF722F86FF0400010EA841F04D02D
:10B170004FF48371F1A0FBF718F8300904D040F2C6
:10B180000711EEA0FBF711F83802F24A40EAC510A9
:10B1900040EA841002EBC8013043A1F82C02BDE85C
:10B1A000F08138B500212020FEF7B6F8EA4C2021C6
:10B1B000E0620AF072FEE16A00200023C875E16ACD
:10B1C0001A460876E16A4FF400608882E16A488294
:10B1D000E16A07208875E06A0621007E009003205E
:10B1E000FFF7B0FF0420002300901A46062102203A
:10B1F000FFF7A8FF38BD2DE9FF5F0E46DDE912A776
:10B20000DDE90E986FF40040DDF844B01C461546A9
:10B2100010EAC63F03D05321D0A0FAF7C6FF6FF45F
:10B22000804010EA853F03D05421CCA0FAF7BDFF3F
:10B230006FF4005010EA443F03D05521C7A0FAF73D
:10B24000B4FF6FF0800111EAC91F03D05621C3A0DB
:10B25000FAF7ABFF6FF0400111EA881F03D05721C6
:10B26000BEA0FAF7A2FF10986FF0200111EA401F6C
:10B2700003D05821B9A0FAF798FF6FF0080111EA3E
:10B28000CB0F03D05921B5A0FAF78FFF6FF004015F
:10B2900011EA8A0F03D05A21B0A0FAF786FF6FF0A7
:10B2A000020010EA470F03D05B21ACA0FAF77DFF44
:10B2B0001498400803D05C21A8A0FAF776FFF003A9
:10B2C00040EA853040EA443141EAC911109841EA28
:10B2D000881141EA401141EACB0141EA8A0040EA83
:10B2E000470114980143009800EB800202EBC00074
:10B2F000984A02EB8000A0F85A11BDE8FF9F70B594
:10B300000D466FF40041044611EAC53F03D0782191
:10B3100092A0FAF74AFF04EB840000EBC4018D48C9
:10B3200000EB8100B0F85A1121F4004141EAC53127
:10B33000A0F85A1170BD70B50D466FF40051044667
:10B3400011EA453F03D0902184A0FAF72EFF04EBC9
:10B35000840000EBC4017F4800EB8100B0F85A1173
:10B3600021F4005141EA4531A0F85A1170BD2DE990
:10B37000F041002400EB4000DFF8D8810F46460082
:10B3800007EB4400022C058803DD262178A0FAF79C
:10B390000CFF06EB440101EB0800A0F83651641CD9
:10B3A000032CEDDBFBE62DE9F041002400EB40002F
:10B3B000DFF8A0810F46460007EB4400022C058809
:10B3C00003DD26216FA0FAF7F0FE06EB440101EB46
:10B3D0000800A0F84851641C032CEDDBDFE62DE9E2
:10B3E000FF5F8846834601F00DF905466A480BEB7E
:10B3F0004B0630F82640584601F0FDF8801D81B21A
:10B400000622684601F0CFF8584601F0F4F80146EC
:10B41000062202A801F0C7F85F48DFF88091801C7F
:10B4200001274FF0340A00EB8606B8F1010F5AD11C
:10B430004948806A007A022855D33088C0F3C0108A
:10B44000F0B39DF80500B7EB901F4CD10DB1A005EE
:10B4500049D50A2001F0BEFF00286ED00022122339
:10B46000114640F60400FEF765F804460B202070F4
:10B470006770584601F0B7F8D9F81C108847607417
:10B48000584601F0A8F8A0700DB3A5F5AD70B0FB5B
:10B49000FAF0C6B21835A9B20622201D01F083F8D1
:10B4A000304601F0EDF8E0709DF80D10B7EB911FFC
:10B4B00002D140F00200E0700098C4F80B0000E0F8
:10B4C00011E0BDF80400A4F80F00A77293E05846FD
:10B4D00001F091F801460622201D01F064F858465B
:10B4E00001F071F8E7E7012001F074FF002824D093
:10B4F00000222B23114640F60400FEF71BF84FF004
:10B50000020880F8008004464770584601F06BF846
:10B51000D9F81C10884784F82A00584601F05BF8D7
:10B520000021A07007283ED2DFE800F03F69043D0B
:10B530003F3D3A000320A07037E05FE07265675F2F
:10B54000626C655F656D5F74785F646573632E68B8
:10B550000000000000200040CC0200207265675F00
:10B56000626C655F656D5F72616C2E680000000043
:10B570007265675F626C655F656D5F7770622E688C
:10B58000000000007265675F626C655F656D5F77E4
:10B5900070762E6800000000FC2600408402002027
:10B5A00084F8028001E0012829D03088000A801F39
:10B5B000A072584601F01FF8801D81B2A27A04F1F2
:10B5C0000B0000F0F0FFE5B1A5F5AD70B0FBFAF0AF
:10B5D000C6B21835A9B20622201D00F0E4FF30469D
:10B5E00001F04EF8E0709DF80D10B7EB911F02D1FD
:10B5F00040F00200E070204608F053F97DE6A172A9
:10B60000E1E7584600F0F7FF01460622201D00F052
:10B61000CAFF584600F0D7FFECE770B50320FDF7EE
:10B6200071FDFFF706FA70B3FD48002590F8E610AB
:10B6300040F60400022908D0012911D0BDE870406D
:10B640004FF4A771F7A0FAF7B0BD22233E220021E4
:10B65000FDF770FF044609202070657000210AE0A4
:10B6600042233E220021FDF765FF0446082020709A
:10B67000657004F12201A01CFFF76BFB2046BDE8BA
:10B68000704008F00EB9BDE870400320FDF71CBD06
:10B6900010B5002400212046FFF731FE641CE4B2FF
:10B6A000042CF7D310BD10B50024E0492046FFF765
:10B6B0007AFE641CA4B2032CF7D30024DB49204695
:10B6C000FFF755FE641CA4B2032CF7D3002400211D
:10B6D0002046FFF730FE641CA4B2042CF7D310BD43
:10B6E00010B501884288D24C41EA024161608188EC
:10B6F000C28841EA0241A1600189428941EA0241CE
:10B70000E1608289C18942EA0141216110226E21F2
:10B71000103000F04CFF6E2060610120206010208E
:10B72000FEF7ECFBBE49012081F8700010BD70B53A
:10B73000BB48FCF766FB06460420FDF7E3FC002E41
:10B7400035D031890025C8B202284FF0110311D03D
:10B7500042F21702002140F60100FDF7EBFE04461D
:10B7600010227E21401C00F01EFF2570204608F0AC
:10B7700098F80DE001220520FDF7DCFE04461022BA
:10B780007E21401C00F00FFF25702046FDF7ECFEE7
:10B790003046FDF716FFA24C206818B1BDE8704096
:10B7A0000C309DE71020FEF7C5FB84F8705070BD8B
:10B7B0002DE9F0479A4C002804F1140804F13009EF
:10B7C0006AD0E06A30B1006808B1FDF7FAFEE06ABD
:10B7D000FDF727FEA06A08B1FDF723FE404607F0FB
:10B7E000FCFF484607F0F9FF00210120FEF70AF8A8
:10B7F00053340025A5770320E0770AF023FB60741B
:10B800008748A574E574FF22042156300AF03EFBF8
:10B810001F26E6710127277244F8195FFFF743FFDF
:10B82000207E20F0010020764FF46170A082FFF7A7
:10B830002FFF01210820FEF776F9207E20F002007C
:10B840002076193C1020A4F82F006672C4F80A5024
:10B85000E5812574657744F82B5C4046FCF75AFA7D
:10B8600044F8275C2562A5846D49533C7931BA07B9
:10B87000506A0870030A4B70030C8B70000EC8707E
:10B88000906A091D0870000A48706548FCF7B9FA0B
:10B8900090B1FDF796FEF8E7644901201431FDF7F9
:10B8A00076FFAFF275110420FDF7FAFBAFF2952198
:10B8B0000320FDF7F5FB97E75948FCF72BFA4846BC
:10B8C000FCF728FA5948801D016844F8441F416874
:10B8D00061608068A060E7756420A08108206074C2
:10B8E000F620A0730A20E073C4202074BDE8F0871E
:10B8F00010B50C4602460123002140F60100FDF779
:10B9000019FE0470BDE8104007F0CBBF00210846C7
:10B91000EEE7F0B58FB0054600F06DFE014622223D
:10B92000684600F040FEBDF81A4040F67741A4F1A9
:10B930000A00884273D2BDF8161006296FD3B1F5FC
:10B94000486F6CD8BDF81800B0F5FA7F67D8401C76
:10B9500048430AF049FC0022364B0AF064FB0646D5
:10B9600004EB84000F4640000AF04FFC32463B4691
:10B970000AF072FC53D30EA804F0DEFE00287ED13C
:10B98000284600F03FFE040016D0A4F5AD70342127
:10B99000B0FBF1F0C5B204F1180081B2062268468E
:10B9A00000F001FE284600F06BFE0646284600F037
:10B9B0005BFE46EA400002E0284600F004FE8DF8F7
:10B9C000320000220EA9684601F035FD002856D14C
:10B9D000134DE86AC07D02280BD0032809D09DF8DA
:10B9E00032100023BDF83820684601F046FD20B132
:10B9F00041E09DF832100123F4E7BDF81600ADF8E0
:10BA00002400BDF81800ADF82600BDF81A00ADF806
:10BA100028009DF8210041098DF834100CE02EE03B
:10BA2000CC0200206C6C6D2E63000000646D02017E
:10BA3000C00000400000044000F01F008DF83300FB
:10BA4000ADF82A4000980B90BDF80400ADF8300026
:10BA5000BDF83830694609A8EA6E05F0F1FD0146E7
:10BA6000E86609A801F000FF0020E86607A9BDF814
:10BA7000380004F018FF00210120FDF7C3FE0FB0CD
:10BA8000F0BD2DE9FC47814600F0A5FD064648467D
:10BA900000F0B1FD01460622684600F084FDFE4C30
:10BAA000A06A28B94FF42971AFF28800FAF77DFB3C
:10BAB000A06A807A012801D0012E2DD1DFF8D88329
:10BAC0006F4608F114080025D8F800400AE0611D0F
:10BAD0003846FCF7A9FA20B12179B14201D10125FC
