:020000040100F9
:10100000400C00200912000183120001851200012A
:1010100087120001891200018B12000100000000FC
:101020000000000000000000000000008D12000120
:101030008F120001000000009112000193120001C4
:1010400000000000951200019512000195120001A8
:1010500095120001951200019512000195120001F0
:1010600095120001951200019512000195120001E0
:101070009512000195120001000000009512000178
:1010800095120001951200019512000195120001C0
:1010900095120001951200019512000195120001B0
:1010A00095120001951200019512000195120001A0
:1010B0009512000195120001951200019512000190
:1010C00095120001DFF80CD000F008F90048004745
:1010D000DD110001400C002010B50168474A1140A5
:1010E000B1F1005F06D14168454A9160006880F324
:1010F00008888847012010BD2DE9F047404A414D3E
:101100001068D0E90B315C18103C04F18074216840
:10111000A94261D1616801290BD000295CD18168A5
:1011200045680E0B0020914603F180730146E76885
:1011300021E00169C5680E0BF4E75A5C82EA102CC5
:101140004FEA1C1C0CEB4C1808EB0C3C4FF6FF78DC
:101150001FFA8CFC08EA001080EA0C0082EA103CBE
:101160000CF00F0202EB421C0CEB023292B208EAC6
:1011700000105040491CB942DFD3A16888422BD1EE
:10118000D9F80400C84640688047002706E0D8F830
:10119000041005EB0730096988477F1CB742F6D376
:1011A000D8F800004646E168C26AD8F8040002F1A7
:1011B0008072C36928469847012808D13068D0E971
:1011C0000B1008447168A0F5805009698847706861
:1011D0000068BDE8F0470047BDE8F087084C0949C2
:1011E00020680068884207D1FFF786FF20684068C2
:1011F00000F18070FFF770FFFEE700000000FE2F97
:1012000034000020D42D91D3234F3E6806F0080609
:1012100076B322482249234A0368B3F50D7F02BF03
:10122000DFF88480DFF88490D9F8009001BFC8F817
:101230000090DFF87C80DFF87C90D9F8009001BF47
:10124000C8F80090DFF87080DFF87090D9F800904F
:1012500001BFC8F80090DFF86880DFF86890D9F81F
:10126000009001BFC8F80090D1F800D01468204762
:101270001548164908600068854615488047154896
:101280000047FEE7FEE7FEE7FEE7FEE7FEE7FEE7D4
:10129000FEE7FEE7FEE70000F480005008000020B3
:1012A00010000020040000204050004014000020E6
:1012B0001490004018000020389000401C000020CE
:1012C00044900040200000200010000108ED00E0E4
:1012D000D9120001C510000170470000064C074DEF
:1012E00006E0E06840F0010394E8070098471034F6
:1012F000AC42F6D3FFF7EAFE2013000140130001D1
:1013000002E008C8121F08C1002AFAD170477047CE
:10131000002001E001C1121F002AFBD1704700002C
:1013200040130001340000200C00000000130001F5
:101330004C13000140000020000C000010130001BD
:0C13400000000001001000000000000090
:04000005010010C521
:00000001FF
